:020000040800F2
:100000000028002061370008B1370008B137000828
:10001000B1370008B1370008B13700080000000010
:100020000000000000000000000000007121000836
:10003000B137000800000000512300089923000890
:10004000B1370008B1370008B1370008B1370008F0
:10005000B1370008B1370008D9280008FD2800088A
:10006000212900084529000869290008B13700083E
:10007000B1370008B1370008B1370008B1370008C0
:10008000B1370008B1370008B1370008B1370008B0
:10009000B1370008B1370008B13700088D290008D2
:1000A000B1370008B1370008B1370008B137000890
:1000B000B1370008B1370008B1370008B137000880
:1000C000B1370008B1370008B1370008B137000870
:1000D000B1370008F93400080D3500082135000853
:1000E000352A0008B137000800000000B1370008C9
:1000F000B1370008B1370008B1370008B137000840
:10010000B1370008B1370008B1370008B13700082F
:10011000B1370008B1370008B1370008B13700081F
:10012000B1370008B1370008B1370008B13700080F
:1001300010B5054C237833B9044B13B10448AFF321
:1001400000800123237010BD040000200000000087
:100150002838000808B5034B1BB103490348AFF327
:10016000008008BD000000000800002028380008BA
:1001700080B483B000AF78607B6803F108027B68CD
:100180005A607B684FF0FF329A607B6803F1080287
:100190007B68DA607B6803F108027B681A617B6820
:1001A00000221A6000BF0C37BD4680BC704780B487
:1001B00083B000AF78607B6800221A6100BF0C3703
:1001C000BD4680BC704780B485B000AF78603960B0
:1001D0007B685B68FB603B68FA685A60FB689A68FA
:1001E0003B689A60FB689B683A685A60FB683A68AB
:1001F0009A603B687A681A617B681B685A1C7B6846
:100200001A6000BF1437BD4680BC704780B485B00B
:1002100000AF786039603B681B68BB60BB68B3F1B6
:10022000FF3F03D17B681B69FB600CE07B680833F0
:10023000FB6002E0FB685B68FB60FB685B681B6857
:10024000BA689A42F6D2FB685A683B685A603B68C3
:100250005B683A689A603B68FA689A60FB683A683B
:100260005A603B687A681A617B681B685A1C7B6815
:100270001A6000BF1437BD4680BC704780B485B09B
:1002800000AF78607B681B69FB607B685B687A689D
:1002900092689A607B689B687A6852685A60FB68CB
:1002A0005B687A689A4203D17B689A68FB685A60F7
:1002B0007B6800221A61FB681B685A1EFB681A6083
:1002C000FB681B6818461437BD4680BC70470000A9
:1002D00080B584B000AF786039607B68FB60FB68F4
:1002E000002B0AD14FF0500383F31188BFF36F8FB7
:1002F000BFF34F8FBB6000BFFEE701F0CFFFFB688D
:100300001A68FB68DB6BF968096C01FB03F31A449C
:10031000FB685A60FB6800229A63FB681A68FB68F6
:100320009A60FB681A68FB68DB6B013BF968096C33
:1003300001FB03F31A44FB68DA60FB68FF2283F8D1
:100340004420FB68FF2283F845203B68002B14D132
:10035000FB681B69002B1AD0FB681033184601F0AC
:100360003DF80346002B12D00C4B4FF080521A6020
:10037000BFF34F8FBFF36F8F09E0FB681033184650
:10038000FFF7F6FEFB6824331846FFF7F1FE01F095
:10039000B5FF012318461037BD4680BD04ED00E0CF
:1003A00080B58AB002AFF860B9601346FB71FB6894
:1003B000002B0AD14FF0500383F31188BFF36F8FE6
:1003C000BFF34F8F3B6100BFFEE7BB68002B02D13C
:1003D0000023FB6104E0FB68BA6802FB03F3FB61E6
:1003E000FB695033184602F051F8B861BB69002B25
:1003F0000BD0BB6950337B61FA79BB69009313461C
:100400007A69B968F86800F005F8BB6918462037C2
:10041000BD4680BD80B584B000AFF860B9607A6039
:10042000FB70BB68002B03D1BB69BA691A6002E09C
:10043000BB697A681A60BB69FA68DA63BB69BA6833
:100440001A640121B869FFF743FFBB69FA7883F8A2
:100450004C2000BF1037BD4680BD000080B58EB077
:1004600000AFF860B9607A603B6000237B63FB6893
:100470003B633B6B002B0AD14FF0500383F3118891
:10048000BFF36F8FBFF34F8FBB6200BFFEE7BB6848
:10049000002B03D13B6B1B6C002B01D1012300E02F
:1004A0000023002B0AD14FF0500383F31188BFF3D0
:1004B0006F8FBFF34F8F7B6200BFFEE73B68022B5D
:1004C00003D13B6BDB6B012B01D1012300E0002347
:1004D000002B0AD14FF0500383F31188BFF36F8FC5
:1004E000BFF34F8F3B6200BFFEE701F019F90346EF
:1004F000002B02D17B68002B01D1012300E00023F7
:10050000002B0AD14FF0500383F31188BFF36F8F94
:10051000BFF34F8FFB6100BFFEE701F0BFFE3B6BF7
:100520009A6B3B6BDB6B9A4202D33B68022B29D15F
:100530003A68B968386B00F007FAF8623B6B5B6A9F
:10054000002B10D03B6B2433184600F047FF0346C6
:10055000002B13D03F4B4FF080521A60BFF34F8FE8
:10056000BFF36F8F0AE0FB6A002B07D0394B4FF0C7
:1005700080521A60BFF34F8FBFF36F8F01F0BEFE42
:10058000012363E07B68002B03D101F0B7FE002359
:100590005CE07B6B002B06D107F11403184600F0DA
:1005A00081FF01237B6301F0A9FE00F0F3FC01F061
:1005B00075FE3B6B93F844305BB2B3F1FF3F03D160
:1005C0003B6B002283F844203B6B93F845305BB2D1
:1005D000B3F1FF3F03D13B6B002283F8452001F0CC
:1005E0008DFE3A1D07F114031146184600F070FF06
:1005F0000346002B24D1386B00F09EFA0346002BF3
:1006000018D03B6B10337A681146184600F096FEFE
:10061000386B00F029FA00F0CBFC0346002B7FF486
:100620007CAF0C4B4FF080521A60BFF34F8FBFF37B
:100630006F8F72E7386B00F017FA00F0B9FC6CE7C7
:10064000386B00F011FA00F0B3FC0023184638377D
:10065000BD4680BD04ED00E080B58EB000AFF8600F
:10066000B9607A603B60FB683B633B6B002B0AD14F
:100670004FF0500383F31188BFF36F8FBFF34F8F99
:100680007B6200BFFEE7BB68002B03D13B6B1B6C9A
:10069000002B01D1012300E00023002B0AD14FF0F1
:1006A000500383F31188BFF36F8FBFF34F8F3B620B
:1006B00000BFFEE73B68022B03D13B6BDB6B012BDA
:1006C00001D1012300E00023002B0AD14FF0500399
:1006D00083F31188BFF36F8FBFF34F8FFB6100BFB0
:1006E000FEE701F095FEEFF311824FF0500383F324
:1006F0001188BFF36F8FBFF34F8FBA617B61BB6906
:10070000FB623B6B9A6B3B6BDB6B9A4202D33B68A1
:10071000022B2CD13B6B93F8453087F82B303A688D
:10072000B968386B00F010F997F92B30B3F1FF3F3F
:1007300012D13B6B5B6A002B16D03B6B24331846FF
:1007400000F04CFE0346002B0ED07B68002B0BD034
:100750007B6801221A6007E097F82B300133DBB287
:100760005AB23B6B83F8452001237B6301E00023F1
:100770007B63FB6A3B613B6983F3118800BF7B6B42
:1007800018463837BD4680BD80B58CB000AFF860E4
:10079000B9607A600023FB62FB68BB62BB6A002B16
:1007A0000AD14FF0500383F31188BFF36F8FBFF36B
:1007B0004F8F3B6200BFFEE7BB68002B03D1BB6AD3
:1007C0001B6C002B01D1012300E00023002B0AD178
:1007D0004FF0500383F31188BFF36F8FBFF34F8F38
:1007E000FB6100BFFEE700F09BFF0346002B02D138
:1007F0007B68002B01D1012300E00023002B0AD1EC
:100800004FF0500383F31188BFF36F8FBFF34F8F07
:10081000BB6100BFFEE701F041FDBB6A9B6B7B62E1
:100820007B6A002B1FD0B968B86A00F0F7F87B6AC2
:100830005A1EBB6A9A63BB6A1B69002B0FD0BB6A46
:100840001033184600F0CAFD0346002B07D03D4B7D
:100850004FF080521A60BFF34F8FBFF36F8F01F0DC
:100860004DFD012369E07B68002B03D101F046FDBB
:10087000002362E0FB6A002B06D107F11003184643
:1008800000F010FE0123FB6201F038FD00F082FB56
:1008900001F004FDBB6A93F844305BB2B3F1FF3F53
:1008A00003D1BB6A002283F84420BB6A93F8453029
:1008B0005BB2B3F1FF3F03D1BB6A002283F845204E
:1008C00001F01CFD3A1D07F110031146184600F017
:1008D000FFFD0346002B23D1B86A00F017F9034649
:1008E000002B17D0BB6A24337A681146184600F0F3
:1008F00025FDB86A00F0B8F800F05AFB0346002B5B
:1009000089D1104B4FF080521A60BFF34F8FBFF365
:100910006F8F80E7B86A00F0A7F800F049FB7AE72C
:10092000B86A00F0A1F800F043FBB86A00F0EEF8F6
:100930000346002B3FF46FAF002318463037BD4607
:1009400080BD00BF04ED00E080B586B000AFF86068
:10095000B9607A6000237B61FB689B6B3B61FB683D
:100960001B6C002B0DD1FB681B68002B4DD1FB6865
:100970005B68184600F0F2FE7861FB6800225A605E
:1009800043E07B68002B19D1FB689868FB681B6CFF
:100990001A46B96802F032FFFB689A68FB681B6C64
:1009A0001A44FB689A60FB689A68FB685B689A4225
:1009B0002BD3FB681A68FB689A6026E0FB68D8684E
:1009C000FB681B6C1A46B96802F018FFFB68DA680E
:1009D000FB681B6C5B421A44FB68DA60FB68DA68F0
:1009E000FB681B689A4207D2FB685A68FB681B6C5D
:1009F0005B421A44FB68DA607B68022B05D13B69D5
:100A0000002B02D03B69013B3B613B695A1CFB68F0
:100A10009A637B6918461837BD4680BD80B582B0A1
:100A200000AF786039607B681B6C002B18D07B6846
:100A3000DA687B681B6C1A447B68DA607B68DA686A
:100A40007B685B689A4203D37B681A687B68DA60CC
:100A50007B68D9687B681B6C1A46386802F0CEFE4A
:100A600000BF0837BD4680BD80B584B000AF786058
:100A700001F014FC7B6893F84530FB7311E07B6850
:100A80005B6A002B12D07B682433184600F0A6FC6A
:100A90000346002B01D000F07DFDFB7B013BDBB268
:100AA000FB7397F90F30002BE9DC00E000BF7B6897
:100AB000FF2283F8452001F021FC01F0EFFB7B6869
:100AC00093F84430BB7311E07B681B69002B12D094
:100AD0007B681033184600F081FC0346002B01D0E0
:100AE00000F058FDBB7B013BDBB2BB7397F90E30C6
:100AF000002BE9DC00E000BF7B68FF2283F8442084
:100B000001F0FCFB00BF1037BD4680BD80B584B04E
:100B100000AF786001F0C2FB7B689B6B002B02D1B9
:100B20000123FB6001E00023FB6001F0E7FBFB68B1
:100B300018461037BD4680BD80B584B000AF7860E0
:100B400001F0ACFB7B689A6B7B68DB6B9A4202D14D
:100B50000123FB6001E00023FB6001F0CFFBFB6899
:100B600018461037BD4680BD80B485B000AF7860B0
:100B700039600023FB6014E00E4AFB6852F8333002
:100B8000002B0BD10B49FB683A6841F83320094A26
:100B9000FB68DB0013447A685A6006E0FB680133A7
:100BA000FB60FB68072BE7D900BF00BF1437BD46C9
:100BB00080BC70479011002080B586B000AFF8600F
:100BC000B9607A60FB687B6101F068FB7B6993F830
:100BD00044305BB2B3F1FF3F03D17B69002283F85D
:100BE00044207B6993F845305BB2B3F1FF3F03D1FA
:100BF0007B69002283F8452001F080FB7B699B6BB9
:100C0000002B06D17B6924337A68B968184600F056
:100C1000B9FB7869FFF728FF00BF1837BD4680BDD4
:100C200080B58CB004AFF860B9603B601346FB80C0
:100C3000FB889B00184601F029FC78617B69002B3A
:100C40000ED05C2001F022FCF861FB69002B03D080
:100C5000FB697A691A6305E0786901F0DBFC01E061
:100C60000023FB61FB69002B13D0FA880023039358
:100C7000FB690293FB6A0193BB6A00933B68B96806
:100C8000F86800F00EF8F86900F092F80123BB61F3
:100C900002E04FF0FF33BB61BB6918462037BD4609
:100CA00080BD80B588B000AFF860B9607A603B6005
:100CB0003B6B186B7B689B001A46A52102F0ACFDCC
:100CC0003B6B1A6B7B6803F18043013B9B00134431
:100CD000BB61BB6923F00703BB61BB6903F007037A
:100CE000002B0AD04FF0500383F31188BFF36F8FAE
:100CF000BFF34F8F7B6100BFFEE70023FB6112E073
:100D0000BA68FB69134419783A6BFB6913443433AE
:100D10000A461A70BA68FB6913441B78002B06D088
:100D2000FB690133FB61FB690F2BE9D900E000BFD0
:100D30003B6B002283F84320BB6A372B01D9372352
:100D4000BB623B6BBA6ADA623B6BBA6ADA643B6BD2
:100D500000221A653B6B04331846FFF728FA3B6BF9
:100D600018331846FFF723FA3B6B3A6B1A61BB6ADC
:100D7000C3F138023B6B9A613B6B3A6B5A623B6B37
:100D800000225A653B6B002283F858203A68F968C4
:100D9000B86901F091F902463B6B1A60FB6A002BBF
:100DA00002D0FB6A3A6B1A6000BF2037BD4680BD97
:100DB00080B582B000AF786001F070FA2D4B1B68EF
:100DC00001332C4A13602C4B1B68002B09D12A4A93
:100DD0007B681360274B1B68012B10D100F0FEFBD2
:100DE0000DE0264B1B68002B09D1234B1B68DA6AE8
:100DF0007B68DB6A9A4202D81F4A7B681360204BEB
:100E00001B6801331E4A13601D4B1A687B685A64C5
:100E10007B68DA6A1B4B1B689A4203D97B68DB6AE2
:100E2000184A13607B68DA6A13469B0013449B00E0
:100E3000154A1A447B68043319461046FFF7C3F974
:100E400001F05CFA0D4B1B68002B0ED00A4B1B689F
:100E5000DA6A7B68DB6A9A4207D20C4B4FF0805209
:100E60001A60BFF34F8FBFF36F8F00BF0837BD46C7
:100E700080BD00BFF40400202000002000050020F9
:100E800010050020FC0400202400002004ED00E0F8
:100E900080B584B000AF78600023FB607B68002BD6
:100EA00017D0134B1B68002B0AD04FF0500383F36D
:100EB0001188BFF36F8FBFF34F8FBB6000BFFEE79A
:100EC00000F068F80021786800F0B4FD00F070F8D8
:100ED000F860FB68002B07D1064B4FF080521A6078
:100EE000BFF34F8FBFF36F8F00BF1037BD4680BD7C
:100EF0001C05002004ED00E080B586B002AF1F4B5A
:100F0000019300230093002380221D491D48FFF711
:100F100087FEF860FB68012B02D100F0DFFDF8606E
:100F2000FB68012B16D14FF0500383F31188BFF3F8
:100F30006F8FBFF34F8FBB6000BF134B4FF0FF327B
:100F40001A60124B01221A60114B00221A6001F044
:100F500033F90EE0FB68B3F1FF3F0AD14FF05003C5
:100F600083F31188BFF36F8FBFF34F8F7B6000BF98
:100F7000FEE700BF1037BD4680BD00BF180500204A
:100F800040380008AD1500081405002000050020B9
:100F9000F804002080B400AF044B1B680133034AFF
:100FA000136000BFBD4680BC704700BF1C05002019
:100FB00080B584B000AF0023FB600023BB60424BD0
:100FC0001B68002B0AD14FF0500383F31188BFF345
:100FD0006F8FBFF34F8F3B6000BFFEE701F05EF9FC
:100FE000394B1B68013B384A1360374B1B68002B99
:100FF00062D1364B1B68002B5ED02FE0344BDB6890
:10100000DB68FB60FB6818331846FFF737F9FB68AD
:1010100004331846FFF732F9FB68DA6A2D4B1B6878
:101020009A4203D9FB68DB6A2A4A1360FB68DA6AD2
:1010300013469B0013449B00274A1A44FB68043361
:1010400019461046FFF7BFF8FB68DA6A234B1B68A6
:10105000DB6A9A4202D3224B01221A601C4B1B68A6
:10106000002BCBD1FB68002B01D000F035FB1D4BD2
:101070001B687B607B68002B10D000F045F80346AE
:10108000002B02D0164B01221A607B68013B7B606B
:101090007B68002BF1D1134B00221A60104B1B68A8
:1010A000002B09D00123BB600F4B4FF080521A6018
:1010B000BFF34F8FBFF36F8F01F020F9BB68184665
:1010C0001037BD4680BD00BF1C050020F404002081
:1010D000B4040020FC040020240000202000002094
:1010E000080500200405002004ED00E080B483B072
:1010F00000AF044B1B687B607B6818460C37BD460D
:1011000080BC7047F804002080B586B000AF002393
:101110007B61514B1B68002B40F08E804F4B1B684E
:1011200001333B614D4A3B6913603B69002B20D181
:101130004B4B1B681B68002B0AD04FF0500383F306
:101140001188BFF36F8FBFF34F8F3B6000BFFEE787
:10115000434B1B68FB60434B1B68414A1360414A89
:10116000FB681360404B1B6801333F4A136000F07B
:10117000B3FA3E4B1B683A699A424ED3384B1B6810
:101180001B68002B01D1012300E00023002B04D0B9
:10119000364B4FF0FF321A603FE0314B1B68DB6883
:1011A000DB68BB60BB685B687B603A697B689A42BE
:1011B00003D22E4A7B6813602FE0BB6804331846C5
:1011C000FFF75CF8BB689B6A002B04D0BB68183340
:1011D0001846FFF753F8BB68DA6A254B1B689A423A
:1011E00003D9BB68DB6A224A1360BB68DA6A13461C
:1011F0009B0013449B001F4A1A44BB6804331946E2
:101200001046FEF7E0FFBB68DA6A1B4B1B68DB6A1F
:101210009A42B3D301237B61B0E7174B1B68DA6AAC
:10122000144913469B0013449B000B441B68012B7D
:1012300007D901237B6104E0104B1B6801330F4A7F
:1012400013600F4B1B68002B01D001237B617B696E
:1012500018461837BD4680BD1C050020F804002044
:10126000AC040020B00400200C0500201405002070
:10127000FC040020240000202000002004050020A1
:101280000805002080B485B000AF274B1B68002BF9
:1012900003D0264B01221A6041E0244B00221A6041
:1012A000234B1B68FB6010E0FB68002B0AD14FF05A
:1012B000500383F31188BFF36F8FBFF34F8F7B60B1
:1012C00000BFFEE7FB68013BFB601A49FA68134662
:1012D0009B0013449B000B441B68002BE4D0FA686E
:1012E00013469B0013449B00124A1344BB60BB6827
:1012F0005B685A68BB685A60BB685A68BB68083349
:101300009A4204D1BB685B685A68BB685A60BB6884
:101310005B68DB68084A1360054AFB68136000BF1E
:101320001437BD4680BC70471C050020080500200E
:10133000FC040020240000202000002080B584B0A0
:1013400000AF786039607B68002B0AD14FF0500302
:1013500083F31188BFF36F8FBFF34F8FFB6000BF24
:10136000FEE7074B1B68183319467868FEF74EFFF7
:101370000121386800F05EFB00BF1037BD4680BD1C
:101380002000002080B586B000AFF860B9607A60B8
:10139000FB68002B0AD14FF0500383F31188BFF391
:1013A0006F8FBFF34F8F7B6100BFFEE70A4B1B6857
:1013B00018331946F868FEF706FF7B68002B02D049
:1013C0004FF0FF33BB607968B86800F033FB00BFB3
:1013D0001837BD4680BD00BF2000002080B586B014
:1013E00000AF78607B68DB68DB683B613B69002BA2
:1013F0000AD14FF0500383F31188BFF36F8FBFF30F
:101400004F8FFB6000BFFEE73B6918331846FEF7BD
:1014100035FF1E4B1B68002B1DD13B69043318465A
:10142000FEF72CFF3B69DA6A194B1B689A4203D915
:101430003B69DB6A164A13603B69DA6A13469B0014
:1014400013449B00134A1A443B690433194610465F
:10145000FEF7B9FE05E03B69183319460E48FEF762
:10146000B2FE3B69DA6A0D4B1B68DB6A9A4205D90A
:1014700001237B610A4B01221A6001E000237B619A
:101480007B6918461837BD4680BD00BF1C0500208B
:10149000FC04002024000020B404002020000020D0
:1014A0000805002080B483B000AF7860064B1A684E
:1014B0007B681A60054B1A687B685A6000BF0C375E
:1014C000BD4680BC704700BF0C050020F80400201A
:1014D00080B588B000AF786039607B68002B0AD196
:1014E0004FF0500383F31188BFF36F8FBFF34F8F1B
:1014F0003B6100BFFEE73B68002B0AD14FF0500371
:1015000083F31188BFF36F8FBFF34F8FFB6000BF72
:10151000FEE700F0C3FE1D4B1B68BB617B685B6888
:10152000BA69D31A7B613B681B68B3F1FF3F02D1F4
:101530000023FB6123E07B681A68154B1B689A4205
:1015400007D07B685B68BA699A4202D30123FB61CA
:1015500015E03B681B687A699A420BD23B681A68AF
:101560007B69D21A3B681A607868FFF79BFF0023FB
:10157000FB6104E03B6800221A600123FB6100F07C
:10158000BDFEFB6918462037BD4680BDF80400202B
:101590000C05002080B400AF034B01221A6000BF8D
:1015A000BD4680BC704700BF0805002080B582B0F2
:1015B00000AF786000F052F8064B1B68012BF9D998
:1015C000054B4FF080521A60BFF34F8FBFF36F8F00
:1015D000F0E700BF2400002004ED00E080B582B0F9
:1015E00000AF00237B600CE07A6813469B00134435
:1015F0009B00124A13441846FEF7BAFD7B6801337C
:101600007B607B68372BEFD90D48FEF7B1FD0D48A5
:10161000FEF7AEFD0C48FEF7ABFD0C48FEF7A8FD4B
:101620000B48FEF7A5FD0B4B054A1A600A4B054A0D
:101630001A6000BF0837BD4680BD00BF24000020EF
:101640008404002098040020B4040020C804002072
:10165000E0040020AC040020B004002080B582B07B
:1016600000AF19E000F01AFE104BDB68DB687B600E
:101670007B6804331846FEF701FE0D4B1B68013BE7
:101680000B4A13600B4B1B68013B0A4A136000F0C6
:1016900035FE786800F010F8064B1B68002BE1D18E
:1016A00000BF00BF0837BD4680BD00BFC804002092
:1016B000F4040020DC04002080B582B000AF786024
:1016C0007B681B6B184600F0A5FF786800F0A2FF4E
:1016D00000BF0837BD4680BD80B483B000AF0E4B5D
:1016E0001B681B68002B01D1012300E00023002BA5
:1016F00004D00A4B4FF0FF321A6008E0064B1B681B
:10170000DB68DB687B607B685B68044A136000BF52
:101710000C37BD4680BC7047AC0400201405002087
:1017200080B483B000AF0B4B1B68002B02D10123A8
:101730007B6008E0084B1B68002B02D102237B6012
:1017400001E000237B607B6818460C37BD4680BCF7
:10175000704700BF000500201C05002080B586B042
:1017600000AF78607B683B6100237B617B68002B66
:1017700056D02E4B1B683A699A420AD04FF050035C
:1017800083F31188BFF36F8FBFF34F8FFB6000BFF0
:10179000FEE73B691B6D002B0AD14FF0500383F32A
:1017A0001188BFF36F8FBFF34F8FBB6000BFFEE7A1
:1017B0003B691B6D5A1E3B691A653B69DA6A3B69D6
:1017C000DB6C9A422CD03B691B6D002B28D13B6906
:1017D00004331846FEF752FD3B69DA6C3B69DA6266
:1017E0003B69DB6AC3F138023B699A613B69DA6A9B
:1017F0000F4B1B689A4203D93B69DB6A0C4A1360A2
:101800003B69DA6A13469B0013449B00094A1A4459
:101810003B69043319461046FEF7D5FC01237B6172
:101820007B6918461837BD4680BD00BF20000020E8
:10183000FC0400202400002080B586B000AFF860D2
:10184000B9607A603B6000F029FD264B1B6893F875
:101850005830DBB2022B1AD0224B1B68596DFA6844
:10186000D2430A405A651F4B1B68012283F8582057
:101870003B68002B0BD00121386800F0DBF81A4BD5
:101880004FF080521A60BFF34F8FBFF36F8F00F09D
:1018900035FD00F003FD7B68002B04D0114B1B6865
:1018A0005A6D7B681A600F4B1B6893F85830DBB297
:1018B000022B02D000237B6108E00A4B1B68596DA4
:1018C000BA68D2430A405A6501237B61054B1B6805
:1018D000002283F8582000F011FD7B691846183764
:1018E000BD4680BD2000002004ED00E080B58AB038
:1018F00000AFF860B9603B601346FB7101237B6267
:10190000FB68002B0AD14FF0500383F31188BFF31B
:101910006F8FBFF34F8FBB6100BFFEE7FB683B6279
:1019200000F0BCFC3B68002B03D03B6A5A6D3B685F
:101930001A603B6A93F85830FB773B6A022283F8BF
:101940005820FB79042B28D801A252F823F000BFBD
:101950009B19000865190008731900087F19000811
:10196000871900083B6A5A6DBB681A433B6A5A657F
:1019700013E03B6A5B6D5A1C3B6A5A650DE03B6A9B
:10198000BA685A6509E0FB7F022B03D03B6ABA684C
:101990005A6501E000237B6200BFFB7F012B3AD137
:1019A0003B6A04331846FEF769FC3B6ADA6A1D4B52
:1019B0001B689A4203D93B6ADB6A1A4A13603B6A86
:1019C000DA6A13469B0013449B00174A1A443B6A89
:1019D000043319461046FEF7F6FB3B6A9B6A002B60
:1019E0000AD04FF0500383F31188BFF36F8FBFF31A
:1019F0004F8F7B6100BFFEE73B6ADA6A0B4B1B68C7
:101A0000DB6A9A4207D90A4B4FF080521A60BFF343
:101A10004F8FBFF36F8F00F071FC7B6A1846283739
:101A2000BD4680BDFC0400202400002020000020D2
:101A300004ED00E080B584B000AF78603960214BE0
:101A40001B68FB60204B1B6804331846FEF716FC2E
:101A50007B68B3F1FF3F0AD13B68002B07D01A4BDC
:101A60001B68043319461948FEF7ADFB26E0FA68F7
:101A70007B681344BB60144B1B68BA685A60BA6831
:101A8000FB689A4209D2124B1A680F4B1B68043349
:101A900019461046FEF7BAFB10E00E4B1A680A4BC7
:101AA0001B68043319461046FEF7B0FB0A4B1B684F
:101AB000BA689A4202D2084ABB68136000BF103766
:101AC000BD4680BDF804002020000020E004002076
:101AD000B0040020AC0400201405002080B584B0C0
:101AE00002AF00237B6000F0B1FA114B1B68002BA2
:101AF0000BD0104B01930223009300234FF480720C
:101B00000D490E48FFF78CF878607B68002B0AD1EE
:101B10004FF0500383F31188BFF36F8FBFF34F8FE4
:101B20003B6000BFFEE77B6818460837BD4680BDB6
:101B30005005002054050020483800085D1C0008AE
:101B400080B58AB000AFF860B9607A603B6000236E
:101B50007B62FB68002B0AD14FF0500383F311889E
:101B6000BFF36F8FBFF34F8F3B6200BFFEE71A4B8F
:101B70001B68002B2AD0BB683B617B687B61FB68DC
:101B8000BB61BB68052B18DCFFF7CAFD0346022BBF
:101B900009D1114B186807F1100100233A6BFEF7C9
:101BA0005DFC786212E00C4B186807F1100100230D
:101BB0000022FEF753FC786208E0074B186807F133
:101BC000100100233A68FEF747FD78627B6A1846E9
:101BD0002837BD4680BD00BF5005002080B588B0C5
:101BE00002AF786039601C4B1B68DB68DB687B6187
:101BF0007B6904331846FEF741FB7B69DB69012BE7
:101C000022D17B699A697B68D1187B683A687869C8
:101C100000F0C8F80346002B16D0002300930023E1
:101C20007A6800217869FFF78BFF38613B69002BE8
:101C30000AD14FF0500383F31188BFF36F8FBFF3C6
:101C40004F8FFB6000BFFEE77B695B6A786998474E
:101C500000BF1837BD4680BD4805002080B584B060
:101C600000AF786007F10803184600F057F8F860F5
:101C7000BB681946F86800F003F800F0D5F8F1E702
:101C800080B584B000AF78603960FFF783F907F161
:101C90000803184600F066F8F860BB68002B30D1E6
:101CA0003B68002B0AD17A68FB689A4206D8FFF796
:101CB0007FF9F9687868FFF791FF24E03B68002B13
:101CC00008D0134B1B681B68002B0CBF012300239B
:101CD000DBB23B600F4B18687A68FB68D31A3A682E
:101CE0001946FEF769FFFFF763F90346002B0AD197
:101CF000094B4FF080521A60BFF34F8FBFF36F8FC5
:101D000001E0FFF755F900BF1037BD4680BD00BFA9
:101D10004C0500205005002004ED00E080B485B0A3
:101D200000AF78600E4B1B681B68002B0CBF0123B3
:101D30000023DBB21A467B681A607B681B68002BA5
:101D400005D1074B1B68DB681B68FB6001E00023C3
:101D5000FB60FB6818461437BD4680BC704700BF67
:101D60004805002080B584B000AF7860FFF7BEF969
:101D7000F8600B4B1B68FA689A4205D200F004F930
:101D80007B6801221A6002E07B6800221A60044A24
:101D9000FB681360FB6818461037BD4680BD00BF66
:101DA0005805002080B586B000AFF860B9607A6051
:101DB0003B6000237B61FB68BA685A60FB68FA6885
:101DC0001A61BA687B689A4212D87A683B68D21A5C
:101DD000FB689B699A4202D301237B611BE0104B95
:101DE0001A68FB68043319461046FEF70FFA12E032
:101DF0007A683B689A4206D2BA683B689A4202D334
:101E000001237B6107E0074B1A68FB68043319461E
:101E10001046FEF7FBF97B6918461837BD4680BDB2
:101E20004C0500204805002080B58EB002AF98E038
:101E30007B68002B18DA3B1D0433FB62FB6A002B26
:101E40000AD14FF0500383F31188BFF36F8FBFF3B4
:101E50004F8FFB6100BFFEE7FB6A1B68FA6A5068A0
:101E6000FA6A9268114698477B68002B78DBFB681A
:101E7000BB62BB6A5B69002B04D0BB6A04331846A3
:101E8000FEF7FCF93B461846FFF76CFF78627B686B
:101E9000092B66D801A252F823F000BFC51E000826
:101EA000C51E0008C51E0008631F0008211F00088A
:101EB000591F0008C51E0008C51E0008631F000842
:101EC000211F0008BA68BB6A9B69D118BB687A6A8F
:101ED000B86AFFF767FF0346002B42D0BB6A5B6A14
:101EE000B86A9847BB6ADB69012B3AD1BA68BB6A0A
:101EF0009B691A440023009300230021B86AFFF76E
:101F00001FFE38623B6A002B2BD14FF0500383F346
:101F10001188BFF36F8FBFF34F8FBB6100BFFEE728
:101F2000BA68BB6A9A61BB6A9B69002B0AD14FF001
:101F3000500383F31188BFF36F8FBFF34F8F7B6123
:101F400000BFFEE7BB6A9A697B6AD1187B6A7A6A2E
:101F5000B86AFFF727FF04E0B86A00F05BFB00E017
:101F600000BF084B1B68391D00221846FEF70CFC09
:101F70000346002B7FF45CAF00BF00BF3037BD4687
:101F800080BD00BF5005002080B588B002AF45E09D
:101F90002C4B1B68DB681B683B612A4B1B68DB68AA
:101FA000DB68FB60FB6804331846FEF767F9FB68E3
:101FB0005B6AF8689847FB68DB69012B2ED1FB68E8
:101FC0009B693A691344BB60BA683B699A420ED96F
:101FD000FB68BA685A60FB68FA681A61194B1A689C
:101FE000FB68043319461046FEF710F916E000238B
:101FF000009300233A690021F868FFF7A1FD78609B
:102000007B68002B0AD14FF0500383F31188BFF394
:102010006F8FBFF34F8F3B6000BFFEE7094B1B681C
:102020001B68002BB4D1074B1B687B61064B1B68F8
:10203000044A1360044A7B69136000BF1837BD4629
:1020400080BD00BF480500204C05002080B500AFD2
:1020500000F024F9124B1B68002B1DD11148FEF72C
:1020600087F81148FEF784F8104B0E4A1A60104B9F
:102070000D4A1A60002210210A20FEF791F903464A
:10208000074A1360064B1B68002B05D0044B1B68E6
:1020900008491846FEF768FD00F030F900BF80BD22
:1020A00050050020200500203405002048050020B0
:1020B0004C0500205038000880B485B000AFF860AF
:1020C000B9607A60FB68043BFB60FB684FF080728C
:1020D0001A60FB68043BFB60BB6823F00102FB68ED
:1020E0001A60FB68043BFB60084AFB681A60FB68E7
:1020F000143BFB607A68FB681A60FB68203BFB605E
:10210000FB6818461437BD4680BC70471121000893
:1021100080B485B000AF00237B60124B1B68B3F125
:10212000FF3F0AD04FF0500383F31188BFF36F8F46
:10213000BFF34F8FFB6000BFFEE74FF0500383F308
:102140001188BFF36F8FBFF34F8FBB6000BF00BF1D
:102150007B68002BFCD000BF00BF1437BD4680BC9D
:10216000704700BF000000200000000000000000D9
:10217000074B19680868B0E8F00F80F30988BFF3CF
:102180006F8F4FF0000080F311884EF00D0E7047F6
:102190002000002000BF00BF06480068006880F3F0
:1021A000088862B661B6BFF34F8FBFF36F8F00DF51
:1021B00000BF00BF08ED00E080B584B000AF324B37
:1021C000FB60FB681B78DBB27B60FB68FF221A7048
:1021D000FB681B78DBB2FB70FB78DBB203F05003CB
:1021E000DAB22A4B1A702A4B07221A6009E0284BF0
:1021F0001B68013B264A1360FB78DBB25B00DBB255
:10220000FB70FB78DBB203F08003802BEFD0204B18
:102210001B68C3F10703042B0AD04FF0500383F36C
:102220001188BFF36F8FBFF34F8FBB6000BFFEE716
:10223000174B1B681B02164A1360154B1B6803F4EF
:10224000E063134A13607B68DAB2FB681A70114BC3
:102250001B68104A43F4700313600E4B1B680D4A51
:1022600043F07043136000F0B9F80B4B00221A6082
:10227000FFF792FFFFF706F8FFF74AFF0023184623
:102280001037BD4680BD00BF00E400E05C050020C3
:102290006005002020ED00E00000002080B483B045
:1022A00000AF4FF0500383F31188BFF36F8FBFF37C
:1022B0004F8F7B6000BF0F4B1B6801330D4A1360CB
:1022C0000C4B1B68012B0FD10B4B1B68DBB2002B97
:1022D0000AD04FF0500383F31188BFF36F8FBFF321
:1022E0004F8F3B6000BFFEE700BF0C37BD4680BC90
:1022F000704700BF0000002004ED00E080B483B010
:1023000000AF114B1B68002B0AD14FF0500383F331
:102310001188BFF36F8FBFF34F8F7B6000BFFEE765
:10232000094B1B68013B084A1360074B1B68002BD5
:1023300005D100233B603B6883F3118800BF00BFD9
:102340000C37BD4680BC7047000000200000000034
:10235000EFF30980BFF36F8F0D4B1A6820E9F00F80
:1023600010602DE908404FF0500080F31188FEF70F
:1023700089FF4FF0000080F31188BDE8084019681C
:102380000868B0E8F00F80F30988BFF36F8F7047DB
:102390002000002000BF00BF80B582B000AF4FF02A
:1023A000500383F31188BFF36F8FBFF34F8F7B60B0
:1023B00000BFFEF7A9FE0346002B03D0064B4FF0EB
:1023C00080521A6000233B603B6883F3118800BF92
:1023D00000BF0837BD4680BD04ED00E080B400AF0B
:1023E000084B00221A60084B00221A60074B41F686
:1023F0003F721A60034B07221A6000BFBD4680BCC3
:10240000704700BF10E000E018E000E014E000E0DA
:1024100080B485B000AFEFF30583FB60FB680F2B42
:1024200014D9164AFB6813441B78FB72144B1B78B3
:10243000FA7A9A420AD24FF0500383F31188BFF31D
:102440006F8FBFF34F8F7B6000BFFEE70D4B1B68A4
:1024500003F4E0620C4B1B689A420AD94FF0500318
:1024600083F31188BFF36F8FBFF34F8F3B6000BFC3
:10247000FEE700BF1437BD4680BC7047F0E300E0C4
:102480005C0500200CED00E06005002080B58AB0FE
:1024900000AF78600023FB61FEF77CFD584B1B68A2
:1024A000002B01D100F010F9564B1A687B681340DD
:1024B000002B40F08E807B68002B1DD008227B68AB
:1024C00013447B607B6803F00703002B14D07B6808
:1024D00023F0070308337B607B6803F00703002BBE
:1024E0000AD04FF0500383F31188BFF36F8FBFF30F
:1024F0004F8F7B6100BFFEE77B68002B69D0424BAA
:102500001B687A689A4264D8404B3B623F4B1B6819
:102510007B6204E07B6A3B627B6A1B687B627B6A4E
:102520005B687A689A4203D97B6A1B68002BF1D1F9
:10253000334B1B687A6A9A424BD03B6A1B6808226D
:102540001344FB617B6A1A683B6A1A607B6A5A68AB
:102550007B68D21A08235B009A421FD97A6A7B688B
:102560001344BB61BB6903F00703002B0AD04FF093
:10257000500383F31188BFF36F8FBFF34F8F3B611D
:1025800000BFFEE77B6A5A687B68D21ABB695A6053
:102590007B6A7A685A60B86900F0F8F81A4B1A68D2
:1025A0007B6A5B68D31A184A1360174B1A68184B7A
:1025B0001B689A4203D2144B1B68154A13607B6A4E
:1025C0005A68104B1B681A437B6A5A607B6A002268
:1025D0001A60FEF7EDFCFB6903F00703002B0AD03D
:1025E0004FF0500383F31188BFF36F8FBFF34F8F0A
:1025F000FB6000BFFEE7FB6918462837BD4680BD7B
:102600006C1100207811002070110020641100204E
:102610007411002080B586B000AF78607B687B6164
:102620007B68002B48D008235B427A6913447B61A6
:102630007B693B613B695A68214B1B681340002B47
:102640000AD14FF0500383F31188BFF36F8FBFF3AC
:102650004F8FFB6000BFFEE73B691B68002B0AD071
:102660004FF0500383F31188BFF36F8FBFF34F8F89
:10267000BB6000BFFEE73B695A68114B1B68134003
:10268000002B19D03B691B68002B15D13B695A6898
:102690000B4B1B68DB431A403B695A60FEF77AFC20
:1026A0003B695A68074B1B681344064A1360386934
:1026B00000F06CF8FEF77CFC00BF1837BD4680BD0B
:1026C000781100207011002080B485B000AF4FF465
:1026D0004063BB60274BFB60FB6803F00703002BE4
:1026E0000CD0FB680733FB60FB6823F00703FB603B
:1026F000BA68FB68D31A1F4A1344BB60FB687B604F
:102700001D4A7B6813601C4B00225A607B68BA68C4
:102710001344FB600822FB689B1AFB60FB6823F0F4
:102720000703FB60FB68154A1360144B1B6800220B
:102730005A60124B1B6800221A607B683B603B6842
:10274000FA68D21A3B685A600C4B1A683B681A60E8
:102750003B685B680A4A13603B685B68094A136020
:10276000094B4FF000421A6000BF1437BD4680BCD1
:10277000704700BF64050020641100206C11002028
:1027800074110020701100207811002080B485B0F1
:1027900000AF7860274BFB6002E0FB681B68FB60C2
:1027A000FB681B687A689A42F7D8FB68BB60FB68D5
:1027B0005B68BA6813447A689A4208D1FB685A6821
:1027C0007B685B681A44FB685A60FB687B607B68C7
:1027D000BB607B685B68BA681A44FB681B689A42F6
:1027E00018D1FB681A68144B1B689A420DD07B689D
:1027F0005A68FB681B685B681A447B685A60FB6810
:102800001B681A687B681A6008E00B4B1A687B68C3
:102810001A6003E0FB681A687B681A60FA687B68D4
:102820009A4202D0FB687A681A6000BF1437BD462E
:1028300080BC7047641100206C11002080B586B008
:1028400000AF0C233B704FF416537B6000233B8199
:1028500000237B810023BB810023FB8120233B825B
:10286000064B7B613B461946054800F0C7FB044810
:1028700000F08EFC00BF1837BD4680BD353500081E
:102880000038014080B584B000AF114A3B4607CA0A
:1028900083E807000023FB730BE0FB7B3A465B00F9
:1028A0001344012219460B4800F0FEFCFB7B013368
:1028B000FB73FB7B5B0007F11002134433F8103C01
:1028C000002BEAD100BF00BF1037BD4680BD00BF5E
:1028D000583800080038014080B500AF054B5B69EF
:1028E000044A43F001035361034B1B68984700BF40
:1028F00080BD00BF00040140D011002080B500AFB2
:10290000054B5B69044A43F002035361034B5B6868
:10291000984700BF80BD00BF00040140D0110020D7
:1029200080B500AF054B5B69044A43F00403536173
:10293000034B9B68984700BF80BD00BF0004014067
:10294000D011002080B500AF054B5B69044A43F00D
:1029500008035361034BDB68984700BF80BD00BF8D
:1029600000040140D011002080B500AF054B5B6929
:10297000044A43F010035361034B1B69984700BF9F
:1029800080BD00BF00040140D011002080B500AF21
:10299000264B5B6903F02003002B08D0234B5B69B7
:1029A000224A43F020035361214B5B6998471F4B38
:1029B0005B6903F04003002B08D01C4B5B691B4A8A
:1029C00043F0400353611A4B9B699847174B5B696F
:1029D00003F08003002B08D0144B5B69134A43F0CB
:1029E00080035361124BDB699847104B5B6903F41A
:1029F0008073002B08D00D4B5B690C4A43F4807345
:102A000053610B4B1B6A9847084B5B6903F40073D7
:102A1000002B08D0054B5B69044A43F400735361F3
:102A2000034B5B6A984700BF80BD00BF00040140B4
:102A3000D011002080B500AF264B5B6903F48063A2
:102A4000002B08D0234B5B69224A43F48063536117
:102A5000214B9B6A98471F4B5B6903F40063002B73
:102A600008D01C4B5B691B4A43F4006353611A4B4B
:102A7000DB6A9847174B5B6903F48053002B08D03F
:102A8000144B5B69134A43F480535361124B1B6B25
:102A90009847104B5B6903F40053002B08D00D4B93
:102AA0005B690C4A43F4005353610B4B5B6B9847D3
:102AB000084B5B6903F48043002B08D0054B5B692E
:102AC000044A43F480435361034B9B6B984700BF18
:102AD00080BD00BF00040140D011002080B483B04D
:102AE00000AF0346FB80FB88B3F5004F00F0A580E4
:102AF000B3F5004F00F3A380B3F5804F00F09B8047
:102B0000B3F5804F00F39B80B3F5005F00F0918038
:102B1000B3F5005F00F39380B3F5805F00F087802A
:102B2000B3F5805F00F38B80B3F5006F7DD0B3F514
:102B3000006F00F38480B3F5806F74D0B3F5806FBD
:102B40007DDCB3F5007F6CD0B3F5007F77DCB3F5A7
:102B5000807F64D0B3F5807F71DC802B5DD0802BCB
:102B60006DDC202B48DC002B69DD013B1F2B66D878
:102B700001A252F823F000BFFF2B0008032C00082D
:102B80003F2C0008072C00083F2C00083F2C0008B1
:102B90003F2C00080B2C00083F2C00083F2C00089D
:102BA0003F2C00083F2C00083F2C00083F2C000859
:102BB0003F2C00080F2C00083F2C00083F2C000879
:102BC0003F2C00083F2C00083F2C00083F2C000839
:102BD0003F2C00083F2C00083F2C00083F2C000829
:102BE0003F2C00083F2C00083F2C00083F2C000819
:102BF0003F2C0008132C0008402B0CD01FE00023B2
:102C00001DE004231BE0082319E00C2317E0102328
:102C100015E0142313E0182311E01C230FE0002318
:102C20000DE004230BE0082309E00C2307E0102348
:102C300005E0142303E0182301E01C23FFE71846F6
:102C40000C37BD4680BC704790B585B000AF78604A
:102C500039600023FB730023BB603B681B88FF2B9C
:102C600001D87B6801E07B680433BB603B681B884C
:102C70001846FFF733FF03460F2202FA03F3DA4345
:102C8000BB681B681A40BB681A603B689B78072BBF
:102C90000BD03B689B78062B07D03B689B78042BB6
:102CA00003D03B689B78052B1CD13B689B78043B89
:102CB0009B005AB23B68DB785BB213435BB2DBB27A
:102CC00003F00F03FB73FC7B3B681B881846FFF780
:102CD00005FF034604FA03F2BB681B681A43BB688E
:102CE0001A605CE03B689B78012B03D03B689B78C3
:102CF000002B15D13B689B789B00DBB203F00F03E0
:102D0000FB73FC7B3B681B881846FFF7E7FE034616
:102D100004FA03F2BB681B681A43BB681A603EE002
:102D20003B689B78082B15D13B689B789B00DBB2F6
:102D300003F00F03FB73FC7B3B681B881846FFF70F
:102D4000CDFE034604FA03F2BB681B681A43BB6856
:102D50001A6024E00823FB733B689B78022B07D1A1
:102D60007B68DB683A6812881A437B68DA6007E0A0
:102D70007B68DB683A681288D2431A407B68DA6065
:102D8000FC7B3B681B881846FFF7A8FE034604FA45
:102D900003F2BB681B681A43BB681A60FFE700BFF9
:102DA0001437BD4690BD80B483B000AF78600B4649
:102DB0007B807B689A687B881340002B01D00123BD
:102DC00000E0002318460C37BD4680BC704780B435
:102DD00083B000AF78600B467B8013467B707B78B6
:102DE000002B06D07B68DA687B881A437B68DA6040
:102DF00006E07B68DA687B88DB431A407B68DA6030
:102E000000BF0C37BD4680BC7047000080B400AFE7
:102E10000B4B5B689B0803F00303022B0AD0022BC9
:102E20000AD8002B02D0012B02D005E0054B03E0AD
:102E3000054B01E0044BFFE71846BD4680BC7047D8
:102E40000010024000127A000024F40080B584B023
:102E500000AF2B4B5B681B0903F00F03BB60BB6823
:102E60000F2B40D801A252F823F000BFAD2E00086E
:102E7000AD2E0008AD2E0008AD2E0008AD2E0008C6
:102E8000AD2E0008AD2E0008AD2E0008B32E0008B0
:102E9000B92E0008BF2E0008C52E0008CB2E000852
:102EA000D12E0008D72E0008DF2E00080123FB607A
:102EB00019E00223FB6016E00423FB6013E0082303
:102EC000FB6010E01023FB600DE04023FB600AE094
:102ED0008023FB6007E04FF48073FB6003E04FF456
:102EE0000073FB6000BFFFF791FF0246FB68B2FB77
:102EF000F3F37B607B6818461037BD4680BD00BF8A
:102F00000010024080B584B000AF1C4B5B681B0A08
:102F100003F00703BB60BB68072B22D801A252F85D
:102F200023F000BF452F0008452F0008452F00085B
:102F3000452F00084B2F0008512F0008572F00087D
:102F40005D2F00080123FB600BE00223FB6008E01B
:102F50000423FB6005E00823FB6002E01023FB6014
:102F600000BFFFF773FF0246FB68B2FBF3F37B6021
:102F70007B6818461037BD4680BD00BF0010024078
:102F800080B584B000AF1C4B5B68DB0A03F007031D
:102F9000BB60BB68072B22D801A252F823F000BF08
:102FA000C12F0008C12F0008C12F0008C12F000841
:102FB000C72F0008CD2F0008D32F0008D92F0008F5
:102FC0000123FB600BE00223FB6008E00423FB60AD
:102FD00005E00823FB6002E01023FB6000BFFFF761
:102FE00035FF0246FB68B2FBF3F37B607B68184653
:102FF0001037BD4680BD00BF0010024080B584B0D0
:1030000000AF786039607B685A4A934209D15A4BC5
:103010009B69594A43F480439361584A3B68136063
:103020001AE07B68564A934209D1534BDB69524AF6
:1030300043F40033D361514A3B6853600CE07B6832
:10304000504A934208D14C4BDB694B4A43F48023EE
:10305000D3614A4A3B6893607B68DB6843F4005263
:103060007B68DA607B68DB683A6812781A437B68B1
:10307000DA607B68DB683A6812891A437B68DA6039
:103080007B68DB683A6852891A437B68DA607B6840
:103090001B693A6892891A437B681A617B685B698D
:1030A0003A68D2891A437B685A617B68314A9342F5
:1030B00003D1FFF765FFF86002E0FFF723FFF86038
:1030C0003B685B681B01FA68B2FBF3F31901FA680D
:1030D00013469B0013449A001A443B685B689B00AC
:1030E000B2FBF3F23B685B681B01F868B0FBF3F3DB
:1030F000642000FB03F3D31A1B01234AA2FB032322
:103100005B0903F00F030B43BB607B689A68BB68E5
:103110001A437B689A603B681B8A002B26D07B6829
:10312000DB683A68128A1A437B68DA607B68114A66
:10313000934206D1154B1B68144A43F020031360D9
:1031400014E07B680E4A934206D1104B1B680F4A6D
:1031500043F04003136009E07B680A4A934205D1BB
:103160000A4B1B68094A43F08003136000BF103705
:10317000BD4680BD00380140001002407C11002097
:1031800000440040004800401F85EB5104E100E08E
:1031900080B588B000AF78607B683D4A934224D107
:1031A0003C4B9B693B4A43F004039361394B9B6959
:1031B000384A43F0010393610623BB770123FB7771
:1031C0004FF40073BB8307F11C0319463248FFF725
:1031D0003BFD0123BB764FF480633B8307F118036B
:1031E00019462D48FFF730FD4EE07B682B4A93428D
:1031F00022D1284B9B69274A43F004039361254B56
:103200009B69244A43F0010393610623BB750123A4
:10321000FB750423BB8207F1140319461E48FFF710
:1032200013FD0123BB7408233B8207F110031946E9
:103230001948FFF709FD27E07B68194A934223D11B
:10324000144B9B69134A43F008039361114B9B692C
:10325000104A43F0010393610623BB730123FB7300
:103260004FF48063BB8107F10C0319460D48FFF74B
:10327000EBFC0123BB724FF400633B8107F10803B1
:1032800019460848FFF7E0FC00BF2037BD4680BD67
:103290000038014000100240000801400044004096
:1032A00000480040000C014080B485B000AFF860D9
:1032B000B9601346FB71FB79012B06D100BFFB6897
:1032C0001B6803F08003002BF9D0FB682B4A934264
:1032D00017D12B4B1B681B89002B05D1BB681B88A2
:1032E000DAB2FB685A6043E0254B1B681B89B3F5D3
:1032F000805F3DD1BB681B88C3F30802FB685A603E
:1033000036E0FB681F4A934217D11D4B5B681B894F
:10331000002B05D1BB681B88DAB2FB685A6027E036
:10332000174B5B681B89B3F5805F21D1BB681B8895
:10333000C3F30802FB685A601AE0FB68124A934222
:1033400016D10F4B9B681B89002B05D1BB681B88CE
:10335000DAB2FB685A600BE0094B9B681B89B3F536
:10336000805F05D1BB681B88C3F30802FB685A6005
:1033700000BF1437BD4680BC704700BF0038014015
:103380007C110020004400400048004080B485B01B
:1033900000AFF860B9601346FB71FB79012B06D1D1
:1033A00000BFFB681B6803F02003002BF9D0FB680B
:1033B0004D4A93422ED14D4B1B681B89B3F5805F5C
:1033C00012D14A4B1B685B89002B05D1FB685B68F7
:1033D0009AB2BB681A8082E0FB685B689BB2DBB282
:1033E0009AB2BB681A807AE0404B1B685B89002B5D
:1033F00007D1FB685B689BB2DBB29AB2BB681A80EC
:103400006DE0FB685B689BB203F07F039AB2BB6818
:103410001A8064E0FB68364A93422ED1334B5B68D6
:103420001B89B3F5805F12D1304B5B685B89002B41
:1034300005D1FB685B689AB2BB681A804FE0FB68F5
:103440005B689BB2DBB29AB2BB681A8047E0274B3D
:103450005B685B89002B07D1FB685B689BB2DBB2C2
:103460009AB2BB681A803AE0FB685B689BB203F0D3
:103470007F039AB2BB681A8031E0FB681D4A934211
:103480002DD11A4B9B681B89B3F5805F12D1174B66
:103490009B685B89002B05D1FB685B689AB2BB68AF
:1034A0001A801CE0FB685B689BB2DBB29AB2BB6817
:1034B0001A8014E00D4B9B685B89002B07D1FB68D9
:1034C0005B689BB2DBB29AB2BB681A8007E0FB680C
:1034D0005B689BB203F07F039AB2BB681A8000BF9F
:1034E0001437BD4680BC7047003801407C11002075
:1034F000004400400048004080B500AF024B1B680C
:103500005B69984700BF80BD7C11002080B500AF8B
:10351000024B5B685B69984700BF80BD7C1100204F
:1035200080B500AF024B9B685B69984700BF80BDC8
:103530007C11002080B500AF184B1B6803F080039E
:10354000002B28D1002216491448FFF71FFF144B07
:103550001B880D2B0ED0134B1B781A46104B198865
:10356000114B23F812100F4B1B780133DAB20D4BBD
:103570001A7010E00B4B1B781A460B4B002123F8F6
:103580001210084B00221A70084B18680023002202
:103590000021FEF7ABF900BF80BD00BF003801403D
:1035A0001C1200208C1100200C1200208811002019
:1035B00080B582B002AF00F0B3F8FFF73FF90B4BD4
:1035C0000193022300930023802209490948FDF753
:1035D00027FB002301930223009300238022064946
:1035E0000648FDF71DFBFDF787FCFEE7881100206C
:1035F0006438000801360008703800088136000879
:1036000090B58BB000AF7860194B07F118040FCB61
:1036100007C42380174B07F108040FCB84E80F0081
:103620004FF0FF33002200210020FEF705F903468A
:10363000012BF5D107F1180319460F4800F034F8B3
:103640000346012B05D1012204210C48FFF7BFFBE3
:10365000E6E707F108031946074800F025F8034696
:10366000012BDDD1002204210448FFF7B0FBD7E78E
:1036700080380008903800080C120020000C01402F
:1036800080B582B000AF786008210648FFF78BFB59
:103690000346002BF8D1FFF7F5F80A20FDF7F8FBF9
:1036A000F2E700BF000C014080B485B000AF786045
:1036B00039600023FB7310E0FB7B5B007A681344E6
:1036C0001B88002B15D0FB7B5B003A6813441B88DA
:1036D000002B0ED0FB7B0133FB73FB7B5B007A6816
:1036E00013441A88FB7B5B0039680B441B889A42A1
:1036F000E2D0FB7B5B007A6813441B88002B08D167
:10370000FB7B5B003A6813441B88002B01D101232B
:1037100000E0002318461437BD4680BC7047000007
:1037200080B582B000AF0423BB800423BB710123AA
:10373000FB713B1D19460948FFF786FA0823BB8039
:103740000223BB710123FB713B4619460348FFF777
:103750007BFA00BF0837BD4680BD00BF000C0140AA
:103760000D488546AFF300800C480D490D4A0023F3
:1037700002E0D458C4500433C4188C42F9D30A4A26
:103780000A4C002301E013600432A242FBD300F094
:1037900011F8FFF70DFFFEE70028002000000020D1
:1037A00004000020A8380008040000202012002097
:1037B000FEE7000070B500260C4D0D4C641BA410F4
:1037C000A64209D100F030F800260A4D0A4C641BCD
:1037D000A410A64205D170BD55F8043B98470136A8
:1037E000EEE755F8043B98470136F2E7A0380008A9
:1037F000A0380008A0380008A43800080A44914204
:1038000000F1FF3300D1704710B511F8014B914220
:1038100003F8014FF9D110BD03460244934200D191
:10382000704703F8011BF9E7F8B500BFF8BC08BC06
:103830009E467047F8B500BFF8BC08BC9E4670476E
:1038400049444C4500000000546D722053766300DB
:10385000546D72510000000041004C0045005200C0
:103860005400000052656C61795F5461736B000015
:10387000636865636B5F73797374656D5F7800006F
:103880005400550052004E004F004E000000000052
:103890005400550052004E004F0046004600000004
:0438A00055010008C6
:0438A40031010008E6
:0438A800AAAAAAAA74
:040000050800376157
:00000001FF
